{
  "contractName": "StructStorage",
  "abi": [
    {
      "constant": true,
      "inputs": [],
      "name": "c",
      "outputs": [
        {
          "internalType": "uint256",
          "name": "",
          "type": "uint256"
        }
      ],
      "payable": false,
      "stateMutability": "view",
      "type": "function"
    },
    {
      "constant": true,
      "inputs": [
        {
          "internalType": "uint256",
          "name": "",
          "type": "uint256"
        }
      ],
      "name": "l",
      "outputs": [
        {
          "internalType": "bytes",
          "name": "lotno",
          "type": "bytes"
        },
        {
          "internalType": "bytes",
          "name": "prodid",
          "type": "bytes"
        },
        {
          "internalType": "bytes",
          "name": "grade",
          "type": "bytes"
        },
        {
          "internalType": "uint256",
          "name": "mrp",
          "type": "uint256"
        },
        {
          "internalType": "bytes32",
          "name": "testdate",
          "type": "bytes32"
        },
        {
          "internalType": "bytes32",
          "name": "expdate",
          "type": "bytes32"
        },
        {
          "internalType": "bool",
          "name": "provided",
          "type": "bool"
        }
      ],
      "payable": false,
      "stateMutability": "view",
      "type": "function"
    },
    {
      "constant": true,
      "inputs": [
        {
          "internalType": "uint256",
          "name": "",
          "type": "uint256"
        }
      ],
      "name": "pd",
      "outputs": [
        {
          "internalType": "bytes",
          "name": "prodid",
          "type": "bytes"
        },
        {
          "internalType": "bytes",
          "name": "fid",
          "type": "bytes"
        },
        {
          "internalType": "bytes32",
          "name": "fname",
          "type": "bytes32"
        },
        {
          "internalType": "bytes32",
          "name": "loc",
          "type": "bytes32"
        },
        {
          "internalType": "bytes32",
          "name": "crop",
          "type": "bytes32"
        },
        {
          "internalType": "uint256",
          "name": "contact",
          "type": "uint256"
        },
        {
          "internalType": "uint256",
          "name": "quantity",
          "type": "uint256"
        },
        {
          "internalType": "uint256",
          "name": "exprice",
          "type": "uint256"
        }
      ],
      "payable": false,
      "stateMutability": "view",
      "type": "function"
    },
    {
      "constant": true,
      "inputs": [
        {
          "internalType": "uint256",
          "name": "",
          "type": "uint256"
        }
      ],
      "name": "pl",
      "outputs": [
        {
          "internalType": "bytes",
          "name": "lotno",
          "type": "bytes"
        },
        {
          "internalType": "bytes",
          "name": "supplierId",
          "type": "bytes"
        },
        {
          "internalType": "bytes32",
          "name": "supplierName",
          "type": "bytes32"
        },
        {
          "internalType": "uint256",
          "name": "price",
          "type": "uint256"
        },
        {
          "internalType": "bytes32",
          "name": "storageDate",
          "type": "bytes32"
        }
      ],
      "payable": false,
      "stateMutability": "view",
      "type": "function"
    },
    {
      "constant": true,
      "inputs": [],
      "name": "s",
      "outputs": [
        {
          "internalType": "uint256",
          "name": "",
          "type": "uint256"
        }
      ],
      "payable": false,
      "stateMutability": "view",
      "type": "function"
    },
    {
      "constant": true,
      "inputs": [],
      "name": "t",
      "outputs": [
        {
          "internalType": "uint256",
          "name": "",
          "type": "uint256"
        }
      ],
      "payable": false,
      "stateMutability": "view",
      "type": "function"
    },
    {
      "constant": true,
      "inputs": [],
      "name": "tester",
      "outputs": [
        {
          "internalType": "address",
          "name": "",
          "type": "address"
        }
      ],
      "payable": false,
      "stateMutability": "view",
      "type": "function"
    },
    {
      "constant": false,
      "inputs": [
        {
          "internalType": "address",
          "name": "addr",
          "type": "address"
        }
      ],
      "name": "fundaddr",
      "outputs": [],
      "payable": false,
      "stateMutability": "nonpayable",
      "type": "function"
    },
    {
      "constant": false,
      "inputs": [
        {
          "internalType": "address",
          "name": "receiver",
          "type": "address"
        },
        {
          "internalType": "uint256",
          "name": "amount",
          "type": "uint256"
        },
        {
          "internalType": "address",
          "name": "sender",
          "type": "address"
        }
      ],
      "name": "sendCoin",
      "outputs": [
        {
          "internalType": "bool",
          "name": "sufficient",
          "type": "bool"
        }
      ],
      "payable": false,
      "stateMutability": "nonpayable",
      "type": "function"
    },
    {
      "constant": true,
      "inputs": [
        {
          "internalType": "address",
          "name": "addr",
          "type": "address"
        }
      ],
      "name": "getBalance",
      "outputs": [
        {
          "internalType": "uint256",
          "name": "",
          "type": "uint256"
        }
      ],
      "payable": false,
      "stateMutability": "view",
      "type": "function"
    },
    {
      "constant": false,
      "inputs": [
        {
          "internalType": "bytes",
          "name": "pid",
          "type": "bytes"
        },
        {
          "internalType": "bytes",
          "name": "fid",
          "type": "bytes"
        },
        {
          "internalType": "bytes32",
          "name": "name",
          "type": "bytes32"
        },
        {
          "internalType": "bytes32",
          "name": "loc",
          "type": "bytes32"
        },
        {
          "internalType": "bytes32",
          "name": "cr",
          "type": "bytes32"
        },
        {
          "internalType": "uint256",
          "name": "con",
          "type": "uint256"
        },
        {
          "internalType": "uint256",
          "name": "q",
          "type": "uint256"
        },
        {
          "internalType": "uint256",
          "name": "pr",
          "type": "uint256"
        }
      ],
      "name": "produce",
      "outputs": [],
      "payable": false,
      "stateMutability": "nonpayable",
      "type": "function"
    },
    {
      "constant": false,
      "inputs": [
        {
          "internalType": "bytes",
          "name": "id",
          "type": "bytes"
        },
        {
          "internalType": "address",
          "name": "ad",
          "type": "address"
        }
      ],
      "name": "saveAddress",
      "outputs": [],
      "payable": false,
      "stateMutability": "nonpayable",
      "type": "function"
    },
    {
      "constant": true,
      "inputs": [
        {
          "internalType": "bytes",
          "name": "id",
          "type": "bytes"
        }
      ],
      "name": "getAddresse",
      "outputs": [
        {
          "internalType": "address",
          "name": "",
          "type": "address"
        }
      ],
      "payable": false,
      "stateMutability": "view",
      "type": "function"
    },
    {
      "constant": true,
      "inputs": [
        {
          "internalType": "bytes",
          "name": "j",
          "type": "bytes"
        }
      ],
      "name": "getproduce",
      "outputs": [
        {
          "internalType": "bytes",
          "name": "",
          "type": "bytes"
        },
        {
          "internalType": "bytes32",
          "name": "",
          "type": "bytes32"
        },
        {
          "internalType": "bytes32",
          "name": "",
          "type": "bytes32"
        },
        {
          "internalType": "bytes32",
          "name": "",
          "type": "bytes32"
        },
        {
          "internalType": "uint256",
          "name": "",
          "type": "uint256"
        },
        {
          "internalType": "uint256",
          "name": "",
          "type": "uint256"
        },
        {
          "internalType": "uint256",
          "name": "",
          "type": "uint256"
        }
      ],
      "payable": false,
      "stateMutability": "view",
      "type": "function"
    },
    {
      "constant": false,
      "inputs": [
        {
          "internalType": "bytes",
          "name": "ll",
          "type": "bytes"
        },
        {
          "internalType": "bytes",
          "name": "pid",
          "type": "bytes"
        },
        {
          "internalType": "bytes",
          "name": "g",
          "type": "bytes"
        },
        {
          "internalType": "uint256",
          "name": "p",
          "type": "uint256"
        },
        {
          "internalType": "bytes32",
          "name": "tt",
          "type": "bytes32"
        },
        {
          "internalType": "bytes32",
          "name": "e",
          "type": "bytes32"
        }
      ],
      "name": "quality",
      "outputs": [],
      "payable": false,
      "stateMutability": "nonpayable",
      "type": "function"
    },
    {
      "constant": false,
      "inputs": [
        {
          "internalType": "bytes",
          "name": "k",
          "type": "bytes"
        }
      ],
      "name": "lotProvideChange",
      "outputs": [],
      "payable": false,
      "stateMutability": "nonpayable",
      "type": "function"
    },
    {
      "constant": true,
      "inputs": [
        {
          "internalType": "bytes",
          "name": "k",
          "type": "bytes"
        }
      ],
      "name": "getquality",
      "outputs": [
        {
          "internalType": "bytes",
          "name": "",
          "type": "bytes"
        },
        {
          "internalType": "bytes",
          "name": "",
          "type": "bytes"
        },
        {
          "internalType": "bytes",
          "name": "",
          "type": "bytes"
        },
        {
          "internalType": "uint256",
          "name": "",
          "type": "uint256"
        },
        {
          "internalType": "bytes32",
          "name": "",
          "type": "bytes32"
        },
        {
          "internalType": "bytes32",
          "name": "",
          "type": "bytes32"
        },
        {
          "internalType": "bool",
          "name": "",
          "type": "bool"
        }
      ],
      "payable": false,
      "stateMutability": "view",
      "type": "function"
    },
    {
      "constant": false,
      "inputs": [
        {
          "internalType": "bytes",
          "name": "j",
          "type": "bytes"
        },
        {
          "internalType": "bytes",
          "name": "suppid",
          "type": "bytes"
        },
        {
          "internalType": "bytes32",
          "name": "suppname",
          "type": "bytes32"
        },
        {
          "internalType": "uint256",
          "name": "pr",
          "type": "uint256"
        },
        {
          "internalType": "bytes32",
          "name": "dt",
          "type": "bytes32"
        }
      ],
      "name": "provideLot",
      "outputs": [],
      "payable": false,
      "stateMutability": "nonpayable",
      "type": "function"
    },
    {
      "constant": true,
      "inputs": [
        {
          "internalType": "bytes",
          "name": "m",
          "type": "bytes"
        }
      ],
      "name": "getprovidedlot",
      "outputs": [
        {
          "internalType": "bytes",
          "name": "",
          "type": "bytes"
        },
        {
          "internalType": "bytes",
          "name": "",
          "type": "bytes"
        },
        {
          "internalType": "bytes32",
          "name": "",
          "type": "bytes32"
        },
        {
          "internalType": "uint256",
          "name": "",
          "type": "uint256"
        },
        {
          "internalType": "bytes32",
          "name": "",
          "type": "bytes32"
        }
      ],
      "payable": false,
      "stateMutability": "view",
      "type": "function"
    }
  ],
  "bytecode": "0x60806040526001600055600160025534801561001a57600080fd5b50612fca8061002a6000396000f3fe608060405234801561001057600080fd5b50600436106101215760003560e01c806392d0d153116100ad578063cd4f277d11610071578063cd4f277d1461102c578063e602d40e14611154578063e7ff2e861461124f578063f8b2cb4f1461132a578063fb5ade311461138257610121565b806392d0d15314610bae57806395911e8614610bcc578063b0307d5f14610dd3578063b81e3a5014610f88578063c3da42b81461100e57610121565b80635ded0c55116100f45780635ded0c55146106ef5780635ef53ded146107aa5780637fb2090a146109d65780638308abd414610b4657806386b714e214610b9057610121565b80630b011824146101265780632c6d8fa7146102b5578063548a06d61461041357806354bb136114610550575b600080fd5b6102b3600480360361010081101561013d57600080fd5b810190808035906020019064010000000081111561015a57600080fd5b82018360208201111561016c57600080fd5b8035906020019184600183028401116401000000008311171561018e57600080fd5b91908080601f016020809104026020016040519081016040528093929190818152602001838380828437600081840152601f19601f820116905080830192505050505050509192919290803590602001906401000000008111156101f157600080fd5b82018360208201111561020357600080fd5b8035906020019184600183028401116401000000008311171561022557600080fd5b91908080601f016020809104026020016040519081016040528093929190818152602001838380828437600081840152601f19601f8201169050808301925050505050505091929192908035906020019092919080359060200190929190803590602001909291908035906020019092919080359060200190929190803590602001909291905050506113c6565b005b61036e600480360360208110156102cb57600080fd5b81019080803590602001906401000000008111156102e857600080fd5b8201836020820111156102fa57600080fd5b8035906020019184600183028401116401000000008311171561031c57600080fd5b91908080601f016020809104026020016040519081016040528093929190818152602001838380828437600081840152601f19601f8201169050808301925050505050505091929192905050506115b0565b6040518080602001888152602001878152602001868152602001858152602001848152602001838152602001828103825289818151815260200191508051906020019080838360005b838110156103d25780820151818401526020810190506103b7565b50505050905090810190601f1680156103ff5780820380516001836020036101000a031916815260200191505b509850505050505050505060405180910390f35b61043f6004803603602081101561042957600080fd5b810190808035906020019092919050505061196a565b60405180806020018060200189815260200188815260200187815260200186815260200185815260200184815260200183810383528b818151815260200191508051906020019080838360005b838110156104a757808201518184015260208101905061048c565b50505050905090810190601f1680156104d45780820380516001836020036101000a031916815260200191505b5083810382528a818151815260200191508051906020019080838360005b8381101561050d5780820151818401526020810190506104f2565b50505050905090810190601f16801561053a5780820380516001836020036101000a031916815260200191505b509a505050505050505050505060405180910390f35b61057c6004803603602081101561056657600080fd5b8101908080359060200190929190505050611aef565b604051808060200180602001806020018881526020018781526020018681526020018515151515815260200184810384528b818151815260200191508051906020019080838360005b838110156105e05780820151818401526020810190506105c5565b50505050905090810190601f16801561060d5780820380516001836020036101000a031916815260200191505b5084810383528a818151815260200191508051906020019080838360005b8381101561064657808201518184015260208101905061062b565b50505050905090810190601f1680156106735780820380516001836020036101000a031916815260200191505b50848103825289818151815260200191508051906020019080838360005b838110156106ac578082015181840152602081019050610691565b50505050905090810190601f1680156106d95780820380516001836020036101000a031916815260200191505b509a505050505050505050505060405180910390f35b6107a86004803603602081101561070557600080fd5b810190808035906020019064010000000081111561072257600080fd5b82018360208201111561073457600080fd5b8035906020019184600183028401116401000000008311171561075657600080fd5b91908080601f016020809104026020016040519081016040528093929190818152602001838380828437600081840152601f19601f820116905080830192505050505050509192919290505050611d13565b005b610863600480360360208110156107c057600080fd5b81019080803590602001906401000000008111156107dd57600080fd5b8201836020820111156107ef57600080fd5b8035906020019184600183028401116401000000008311171561081157600080fd5b91908080601f016020809104026020016040519081016040528093929190818152602001838380828437600081840152601f19601f820116905080830192505050505050509192919290505050611d9b565b604051808060200180602001806020018881526020018781526020018681526020018515151515815260200184810384528b818151815260200191508051906020019080838360005b838110156108c75780820151818401526020810190506108ac565b50505050905090810190601f1680156108f45780820380516001836020036101000a031916815260200191505b5084810383528a818151815260200191508051906020019080838360005b8381101561092d578082015181840152602081019050610912565b50505050905090810190601f16801561095a5780820380516001836020036101000a031916815260200191505b50848103825289818151815260200191508051906020019080838360005b83811015610993578082015181840152602081019050610978565b50505050905090810190601f1680156109c05780820380516001836020036101000a031916815260200191505b509a505050505050505050505060405180910390f35b610b44600480360360a08110156109ec57600080fd5b8101908080359060200190640100000000811115610a0957600080fd5b820183602082011115610a1b57600080fd5b80359060200191846001830284011164010000000083111715610a3d57600080fd5b91908080601f016020809104026020016040519081016040528093929190818152602001838380828437600081840152601f19601f82011690508083019250505050505050919291929080359060200190640100000000811115610aa057600080fd5b820183602082011115610ab257600080fd5b80359060200191846001830284011164010000000083111715610ad457600080fd5b91908080601f016020809104026020016040519081016040528093929190818152602001838380828437600081840152601f19601f820116905080830192505050505050509192919290803590602001909291908035906020019092919080359060200190929190505050612298565b005b610b4e61241f565b604051808273ffffffffffffffffffffffffffffffffffffffff1673ffffffffffffffffffffffffffffffffffffffff16815260200191505060405180910390f35b610b98612445565b6040518082815260200191505060405180910390f35b610bb661244b565b6040518082815260200191505060405180910390f35b610dd1600480360360c0811015610be257600080fd5b8101908080359060200190640100000000811115610bff57600080fd5b820183602082011115610c1157600080fd5b80359060200191846001830284011164010000000083111715610c3357600080fd5b91908080601f016020809104026020016040519081016040528093929190818152602001838380828437600081840152601f19601f82011690508083019250505050505050919291929080359060200190640100000000811115610c9657600080fd5b820183602082011115610ca857600080fd5b80359060200191846001830284011164010000000083111715610cca57600080fd5b91908080601f016020809104026020016040519081016040528093929190818152602001838380828437600081840152601f19601f82011690508083019250505050505050919291929080359060200190640100000000811115610d2d57600080fd5b820183602082011115610d3f57600080fd5b80359060200191846001830284011164010000000083111715610d6157600080fd5b91908080601f016020809104026020016040519081016040528093929190818152602001838380828437600081840152601f19601f820116905080830192505050505050509192919290803590602001909291908035906020019092919080359060200190929190505050612451565b005b610e8c60048036036020811015610de957600080fd5b8101908080359060200190640100000000811115610e0657600080fd5b820183602082011115610e1857600080fd5b80359060200191846001830284011164010000000083111715610e3a57600080fd5b91908080601f016020809104026020016040519081016040528093929190818152602001838380828437600081840152601f19601f820116905080830192505050505050509192919290505050612674565b604051808060200180602001868152602001858152602001848152602001838103835288818151815260200191508051906020019080838360005b83811015610ee2578082015181840152602081019050610ec7565b50505050905090810190601f168015610f0f5780820380516001836020036101000a031916815260200191505b50838103825287818151815260200191508051906020019080838360005b83811015610f48578082015181840152602081019050610f2d565b50505050905090810190601f168015610f755780820380516001836020036101000a031916815260200191505b5097505050505050505060405180910390f35b610ff460048036036060811015610f9e57600080fd5b81019080803573ffffffffffffffffffffffffffffffffffffffff16906020019092919080359060200190929190803573ffffffffffffffffffffffffffffffffffffffff1690602001909291905050506129e6565b604051808215151515815260200191505060405180910390f35b611016612ade565b6040518082815260200191505060405180910390f35b6110586004803603602081101561104257600080fd5b8101908080359060200190929190505050612ae4565b604051808060200180602001868152602001858152602001848152602001838103835288818151815260200191508051906020019080838360005b838110156110ae578082015181840152602081019050611093565b50505050905090810190601f1680156110db5780820380516001836020036101000a031916815260200191505b50838103825287818151815260200191508051906020019080838360005b838110156111145780820151818401526020810190506110f9565b50505050905090810190601f1680156111415780820380516001836020036101000a031916815260200191505b5097505050505050505060405180910390f35b61120d6004803603602081101561116a57600080fd5b810190808035906020019064010000000081111561118757600080fd5b82018360208201111561119957600080fd5b803590602001918460018302840111640100000000831117156111bb57600080fd5b91908080601f016020809104026020016040519081016040528093929190818152602001838380828437600081840152601f19601f820116905080830192505050505050509192919290505050612c57565b604051808273ffffffffffffffffffffffffffffffffffffffff1673ffffffffffffffffffffffffffffffffffffffff16815260200191505060405180910390f35b6113286004803603604081101561126557600080fd5b810190808035906020019064010000000081111561128257600080fd5b82018360208201111561129457600080fd5b803590602001918460018302840111640100000000831117156112b657600080fd5b91908080601f016020809104026020016040519081016040528093929190818152602001838380828437600081840152601f19601f820116905080830192505050505050509192919290803573ffffffffffffffffffffffffffffffffffffffff169060200190929190505050612cea565b005b61136c6004803603602081101561134057600080fd5b81019080803573ffffffffffffffffffffffffffffffffffffffff169060200190929190505050612d96565b6040518082815260200191505060405180910390f35b6113c46004803603602081101561139857600080fd5b81019080803573ffffffffffffffffffffffffffffffffffffffff169060200190929190505050612ddf565b005b6113ce612e28565b6040518061010001604052808a81526020018981526020018881526020018781526020018681526020018581526020018481526020018381525090508060078a6040518082805190602001908083835b60208310611441578051825260208201915060208101905060208303925061141e565b6001836020036101000a03801982511681845116808217855250505050505090500191505090815260200160405180910390206000820151816000019080519060200190611490929190612e76565b5060208201518160010190805190602001906114ad929190612e76565b5060408201518160020155606082015181600301556080820151816004015560a0820151816005015560c0820151816006015560e08201518160070155905050600881908060018154018082558091505090600182039060005260206000209060080201600090919290919091506000820151816000019080519060200190611537929190612e76565b506020820151816001019080519060200190611554929190612e76565b5060408201518160020155606082015181600301556080820151816004015560a0820151816005015560c0820151816006015560e082015181600701555050506000808154809291906001019190505550505050505050505050565b60606000806000806000806007886040518082805190602001908083835b602083106115f157805182526020820191506020810190506020830392506115ce565b6001836020036101000a03801982511681845116808217855250505050505090500191505090815260200160405180910390206001016007896040518082805190602001908083835b6020831061165d578051825260208201915060208101905060208303925061163a565b6001836020036101000a03801982511681845116808217855250505050505090500191505090815260200160405180910390206002015460078a6040518082805190602001908083835b602083106116ca57805182526020820191506020810190506020830392506116a7565b6001836020036101000a03801982511681845116808217855250505050505090500191505090815260200160405180910390206003015460078b6040518082805190602001908083835b602083106117375780518252602082019150602081019050602083039250611714565b6001836020036101000a03801982511681845116808217855250505050505090500191505090815260200160405180910390206004015460078c6040518082805190602001908083835b602083106117a45780518252602082019150602081019050602083039250611781565b6001836020036101000a03801982511681845116808217855250505050505090500191505090815260200160405180910390206005015460078d6040518082805190602001908083835b6020831061181157805182526020820191506020810190506020830392506117ee565b6001836020036101000a03801982511681845116808217855250505050505090500191505090815260200160405180910390206006015460078e6040518082805190602001908083835b6020831061187e578051825260208201915060208101905060208303925061185b565b6001836020036101000a038019825116818451168082178552505050505050905001915050908152602001604051809103902060070154868054600181600116156101000203166002900480601f01602080910402602001604051908101604052809291908181526020018280546001816001161561010002031660029004801561194a5780601f1061191f5761010080835404028352916020019161194a565b820191906000526020600020905b81548152906001019060200180831161192d57829003601f168201915b505050505096509650965096509650965096509650919395979092949650565b6008818154811061197757fe5b9060005260206000209060080201600091509050806000018054600181600116156101000203166002900480601f016020809104026020016040519081016040528092919081815260200182805460018160011615610100020316600290048015611a235780601f106119f857610100808354040283529160200191611a23565b820191906000526020600020905b815481529060010190602001808311611a0657829003601f168201915b505050505090806001018054600181600116156101000203166002900480601f016020809104026020016040519081016040528092919081815260200182805460018160011615610100020316600290048015611ac15780601f10611a9657610100808354040283529160200191611ac1565b820191906000526020600020905b815481529060010190602001808311611aa457829003601f168201915b5050505050908060020154908060030154908060040154908060050154908060060154908060070154905088565b600a8181548110611afc57fe5b9060005260206000209060070201600091509050806000018054600181600116156101000203166002900480601f016020809104026020016040519081016040528092919081815260200182805460018160011615610100020316600290048015611ba85780601f10611b7d57610100808354040283529160200191611ba8565b820191906000526020600020905b815481529060010190602001808311611b8b57829003601f168201915b505050505090806001018054600181600116156101000203166002900480601f016020809104026020016040519081016040528092919081815260200182805460018160011615610100020316600290048015611c465780601f10611c1b57610100808354040283529160200191611c46565b820191906000526020600020905b815481529060010190602001808311611c2957829003601f168201915b505050505090806002018054600181600116156101000203166002900480601f016020809104026020016040519081016040528092919081815260200182805460018160011615610100020316600290048015611ce45780601f10611cb957610100808354040283529160200191611ce4565b820191906000526020600020905b815481529060010190602001808311611cc757829003601f168201915b5050505050908060030154908060040154908060050154908060060160009054906101000a900460ff16905087565b60016009826040518082805190602001908083835b60208310611d4b5780518252602082019150602081019050602083039250611d28565b6001836020036101000a038019825116818451168082178552505050505050905001915050908152602001604051809103902060060160006101000a81548160ff02191690831515021790555050565b60608060606000806000806009886040518082805190602001908083835b60208310611ddc5780518252602082019150602081019050602083039250611db9565b6001836020036101000a03801982511681845116808217855250505050505090500191505090815260200160405180910390206000016009896040518082805190602001908083835b60208310611e485780518252602082019150602081019050602083039250611e25565b6001836020036101000a038019825116818451168082178552505050505050905001915050908152602001604051809103902060010160098a6040518082805190602001908083835b60208310611eb45780518252602082019150602081019050602083039250611e91565b6001836020036101000a038019825116818451168082178552505050505050905001915050908152602001604051809103902060020160098b6040518082805190602001908083835b60208310611f205780518252602082019150602081019050602083039250611efd565b6001836020036101000a03801982511681845116808217855250505050505090500191505090815260200160405180910390206003015460098c6040518082805190602001908083835b60208310611f8d5780518252602082019150602081019050602083039250611f6a565b6001836020036101000a03801982511681845116808217855250505050505090500191505090815260200160405180910390206004015460098d6040518082805190602001908083835b60208310611ffa5780518252602082019150602081019050602083039250611fd7565b6001836020036101000a03801982511681845116808217855250505050505090500191505090815260200160405180910390206005015460098e6040518082805190602001908083835b602083106120675780518252602082019150602081019050602083039250612044565b6001836020036101000a038019825116818451168082178552505050505050905001915050908152602001604051809103902060060160009054906101000a900460ff16868054600181600116156101000203166002900480601f0160208091040260200160405190810160405280929190818152602001828054600181600116156101000203166002900480156121405780601f1061211557610100808354040283529160200191612140565b820191906000526020600020905b81548152906001019060200180831161212357829003601f168201915b50505050509650858054600181600116156101000203166002900480601f0160208091040260200160405190810160405280929190818152602001828054600181600116156101000203166002900480156121dc5780601f106121b1576101008083540402835291602001916121dc565b820191906000526020600020905b8154815290600101906020018083116121bf57829003601f168201915b50505050509550848054600181600116156101000203166002900480601f0160208091040260200160405190810160405280929190818152602001828054600181600116156101000203166002900480156122785780601f1061224d57610100808354040283529160200191612278565b820191906000526020600020905b81548152906001019060200180831161225b57829003601f168201915b505050505094509650965096509650965096509650919395979092949650565b6122a0612ef6565b6040518060a0016040528087815260200186815260200185815260200184815260200183815250905080600b876040518082805190602001908083835b6020831061230057805182526020820191506020810190506020830392506122dd565b6001836020036101000a0380198251168184511680821785525050505050509050019150509081526020016040518091039020600082015181600001908051906020019061234f929190612e76565b50602082015181600101908051906020019061236c929190612e76565b50604082015181600201556060820151816003015560808201518160040155905050600c819080600181540180825580915050906001820390600052602060002090600502016000909192909190915060008201518160000190805190602001906123d8929190612e76565b5060208201518160010190805190602001906123f5929190612e76565b50604082015181600201556060820151816003015560808201518160040155505050505050505050565b600560009054906101000a900473ffffffffffffffffffffffffffffffffffffffff1681565b60005481565b60025481565b612459612f2b565b6040518060e00160405280888152602001878152602001868152602001858152602001848152602001838152602001600015158152509050806009886040518082805190602001908083835b602083106124c857805182526020820191506020810190506020830392506124a5565b6001836020036101000a03801982511681845116808217855250505050505090500191505090815260200160405180910390206000820151816000019080519060200190612517929190612e76565b506020820151816001019080519060200190612534929190612e76565b506040820151816002019080519060200190612551929190612e76565b50606082015181600301556080820151816004015560a0820151816005015560c08201518160060160006101000a81548160ff021916908315150217905550905050600a819080600181540180825580915050906001820390600052602060002090600702016000909192909190915060008201518160000190805190602001906125dd929190612e76565b5060208201518160010190805190602001906125fa929190612e76565b506040820151816002019080519060200190612617929190612e76565b50606082015181600301556080820151816004015560a0820151816005015560c08201518160060160006101000a81548160ff02191690831515021790555050505060026000815480929190600101919050555050505050505050565b6060806000806000600b866040518082805190602001908083835b602083106126b2578051825260208201915060208101905060208303925061268f565b6001836020036101000a0380198251168184511680821785525050505050509050019150509081526020016040518091039020600001600b876040518082805190602001908083835b6020831061271e57805182526020820191506020810190506020830392506126fb565b6001836020036101000a0380198251168184511680821785525050505050509050019150509081526020016040518091039020600101600b886040518082805190602001908083835b6020831061278a5780518252602082019150602081019050602083039250612767565b6001836020036101000a038019825116818451168082178552505050505050905001915050908152602001604051809103902060020154600b896040518082805190602001908083835b602083106127f757805182526020820191506020810190506020830392506127d4565b6001836020036101000a038019825116818451168082178552505050505050905001915050908152602001604051809103902060030154600b8a6040518082805190602001908083835b602083106128645780518252602082019150602081019050602083039250612841565b6001836020036101000a038019825116818451168082178552505050505050905001915050908152602001604051809103902060040154848054600181600116156101000203166002900480601f0160208091040260200160405190810160405280929190818152602001828054600181600116156101000203166002900480156129305780601f1061290557610100808354040283529160200191612930565b820191906000526020600020905b81548152906001019060200180831161291357829003601f168201915b50505050509450838054600181600116156101000203166002900480601f0160208091040260200160405190810160405280929190818152602001828054600181600116156101000203166002900480156129cc5780601f106129a1576101008083540402835291602001916129cc565b820191906000526020600020905b8154815290600101906020018083116129af57829003601f168201915b505050505093509450945094509450945091939590929450565b600082600360008473ffffffffffffffffffffffffffffffffffffffff1673ffffffffffffffffffffffffffffffffffffffff168152602001908152602001600020541015612a385760009050612ad7565b82600360008473ffffffffffffffffffffffffffffffffffffffff1673ffffffffffffffffffffffffffffffffffffffff1681526020019081526020016000206000828254039250508190555082600360008673ffffffffffffffffffffffffffffffffffffffff1673ffffffffffffffffffffffffffffffffffffffff16815260200190815260200160002060008282540192505081905550600190505b9392505050565b60015481565b600c8181548110612af157fe5b9060005260206000209060050201600091509050806000018054600181600116156101000203166002900480601f016020809104026020016040519081016040528092919081815260200182805460018160011615610100020316600290048015612b9d5780601f10612b7257610100808354040283529160200191612b9d565b820191906000526020600020905b815481529060010190602001808311612b8057829003601f168201915b505050505090806001018054600181600116156101000203166002900480601f016020809104026020016040519081016040528092919081815260200182805460018160011615610100020316600290048015612c3b5780601f10612c1057610100808354040283529160200191612c3b565b820191906000526020600020905b815481529060010190602001808311612c1e57829003601f168201915b5050505050908060020154908060030154908060040154905085565b60006004826040518082805190602001908083835b60208310612c8f5780518252602082019150602081019050602083039250612c6c565b6001836020036101000a038019825116818451168082178552505050505050905001915050908152602001604051809103902060009054906101000a900473ffffffffffffffffffffffffffffffffffffffff169050919050565b806004836040518082805190602001908083835b60208310612d215780518252602082019150602081019050602083039250612cfe565b6001836020036101000a038019825116818451168082178552505050505050905001915050908152602001604051809103902060006101000a81548173ffffffffffffffffffffffffffffffffffffffff021916908373ffffffffffffffffffffffffffffffffffffffff1602179055505050565b6000600360008373ffffffffffffffffffffffffffffffffffffffff1673ffffffffffffffffffffffffffffffffffffffff168152602001908152602001600020549050919050565b6107d0600360008373ffffffffffffffffffffffffffffffffffffffff1673ffffffffffffffffffffffffffffffffffffffff1681526020019081526020016000208190555050565b60405180610100016040528060608152602001606081526020016000801916815260200160008019168152602001600080191681526020016000815260200160008152602001600081525090565b828054600181600116156101000203166002900490600052602060002090601f016020900481019282601f10612eb757805160ff1916838001178555612ee5565b82800160010185558215612ee5579182015b82811115612ee4578251825591602001919060010190612ec9565b5b509050612ef29190612f70565b5090565b6040518060a0016040528060608152602001606081526020016000801916815260200160008152602001600080191681525090565b6040518060e001604052806060815260200160608152602001606081526020016000815260200160008019168152602001600080191681526020016000151581525090565b612f9291905b80821115612f8e576000816000905550600101612f76565b5090565b9056fea265627a7a72315820575ddb61ccf28bbf730ce5babb52262a0b6c8a452c0bc24edf633e70e211eab764736f6c63430005100032",
  "source": "pragma solidity ^0.5.0;\r\n\r\ncontract StructStorage {\r\n\r\n    uint256 public s = 1; \r\n    uint256 public c;\r\n    uint256 public t=1;\r\n    mapping (address => uint) balances;\r\n    mapping (bytes => address) addresses;\r\n\r\n    function fundaddr(address addr) public{\r\n        balances[addr] = 2000;\r\n    }\r\n\r\n        function sendCoin(address receiver, uint amount, address sender) public returns(bool sufficient){\r\n        \r\n        \r\n        if (balances[sender] < amount) \r\n        return false;\r\n        \r\n        balances[sender] -= amount;\r\n        balances[receiver] += amount;\r\n        \r\n                        \r\n        return true;\r\n        \r\n    }\r\n\r\n    function getBalance(address addr) view public returns(uint){\r\n        return balances[addr];\r\n    }\r\nstruct product {\r\n   \r\n    bytes prodid;\r\n    bytes fid;\r\n    bytes32 fname;\r\n    bytes32 loc;\r\n    bytes32 crop;\r\n    uint256 contact;\r\n    uint quantity;\r\n    uint exprice;\r\n}\r\n\r\nstruct lot {\r\n\r\n    bytes lotno;\r\n    bytes prodid;\r\n    bytes grade;\r\n    uint mrp;\r\n    bytes32 testdate;\r\n    bytes32 expdate;\r\n    bool provided;\r\n}\r\nstruct providedLot {\r\n    bytes lotno;\r\n    bytes supplierId;\r\n    bytes32 supplierName;\r\n    uint price;\r\n    bytes32 storageDate;\r\n\r\n}\r\naddress public tester;\r\naddress owner;\r\n\r\nmapping (bytes => product) p1;\r\nproduct[] public pd;\r\n\r\nmapping (bytes => lot) l1;\r\nlot[] public l;\r\n\r\nmapping(bytes => providedLot) pl1;\r\nprovidedLot[] public pl;\r\n\r\n\r\n\r\nfunction produce(bytes memory pid, bytes memory fid, bytes32 name, bytes32 loc, bytes32 cr, uint256 con, uint q, uint pr) public{\r\n               \r\n        StructStorage.product memory pnew = product(pid,fid,name,loc,cr,con,q,pr);\r\n        p1[pid] = pnew;\r\n        pd.push(pnew);\r\n        s++;\r\n  \r\n}\r\nfunction saveAddress(bytes memory id, address ad) public{\r\n        addresses[id]=ad;\r\n}\r\nfunction getAddresse(bytes memory id) public view returns(address){\r\n    return addresses[id];\r\n}\r\n function getproduce(bytes memory j) public view returns(bytes memory,bytes32,bytes32,bytes32,uint256,uint,uint) {\r\n        return (p1[j].fid,p1[j].fname,p1[j].loc,p1[j].crop,p1[j].contact,p1[j].quantity,p1[j].exprice);\r\n    }\r\n function quality(bytes memory ll, bytes memory pid, bytes memory g, uint256 p, bytes32 tt, bytes32 e) public{\r\n    \r\n        StructStorage.lot memory lnew=lot(ll,pid,g,p,tt,e,false);\r\n        l1[ll]=lnew;\r\n        l.push(lnew);\r\n        t++;\r\n  \r\n }  \r\n function lotProvideChange(bytes memory k) public{\r\n     l1[k].provided=true;\r\n }\r\n function getquality(bytes memory k) public view returns(bytes memory,bytes memory,bytes memory,uint,bytes32,bytes32,bool) {\r\n     return(l1[k].lotno,l1[k].prodid,l1[k].grade,l1[k].mrp,l1[k].testdate,l1[k].expdate,l1[k].provided);\r\n     \r\n }\r\n\r\n function provideLot (bytes memory j,bytes memory suppid,bytes32 suppname,uint pr,bytes32 dt) public{\r\n     StructStorage.providedLot memory plnew = providedLot(j,suppid,suppname,pr,dt);\r\n     pl1[j]=plnew;\r\n     pl.push(plnew);\r\n }\r\n function getprovidedlot(bytes memory m) public view returns(bytes memory,bytes memory,bytes32,uint,bytes32){\r\n     return (pl1[m].lotno,pl1[m].supplierId,pl1[m].supplierName,pl1[m].price,pl1[m].storageDate);\r\n }\r\n}\r\n",
  "sourcePath": "C:\\Users\\Ouerheni\\Desktop\\project_agro\\contracts\\StructStorage.sol",
  "compiler": {
    "name": "solc",
    "version": "0.5.16+commit.9c3226ce.Emscripten.clang"
  },
  "schemaVersion": "3.4.3",
  "updatedAt": "2022-01-09T18:45:54.852Z",
  "networkType": "ethereum",
  "devdoc": {
    "methods": {}
  },
  "userdoc": {
    "methods": {}
  }
}